{
  "_format": "hh-sol-artifact-1",
  "contractName": "WarhammerGame",
  "sourceName": "contracts/WarhammerGame.sol",
  "abi": [
    {
      "inputs": [
        {
          "internalType": "string[]",
          "name": "characterNames",
          "type": "string[]"
        },
        {
          "internalType": "string[]",
          "name": "characterImageURIs",
          "type": "string[]"
        },
        {
          "internalType": "uint256[]",
          "name": "characterHp",
          "type": "uint256[]"
        },
        {
          "internalType": "uint256[]",
          "name": "characterAttackPwr",
          "type": "uint256[]"
        },
        {
          "internalType": "uint256[]",
          "name": "characterDefense",
          "type": "uint256[]"
        },
        {
          "internalType": "uint256[]",
          "name": "characterMagic",
          "type": "uint256[]"
        },
        {
          "internalType": "uint256[]",
          "name": "characterFaith",
          "type": "uint256[]"
        },
        {
          "internalType": "string",
          "name": "bossName",
          "type": "string"
        },
        {
          "internalType": "string",
          "name": "bossImageURI",
          "type": "string"
        },
        {
          "internalType": "uint256",
          "name": "bossHp",
          "type": "uint256"
        },
        {
          "internalType": "uint256",
          "name": "bossAttack",
          "type": "uint256"
        }
      ],
      "stateMutability": "nonpayable",
      "type": "constructor"
    },
    {
      "anonymous": false,
      "inputs": [
        {
          "indexed": true,
          "internalType": "address",
          "name": "owner",
          "type": "address"
        },
        {
          "indexed": true,
          "internalType": "address",
          "name": "approved",
          "type": "address"
        },
        {
          "indexed": true,
          "internalType": "uint256",
          "name": "tokenId",
          "type": "uint256"
        }
      ],
      "name": "Approval",
      "type": "event"
    },
    {
      "anonymous": false,
      "inputs": [
        {
          "indexed": true,
          "internalType": "address",
          "name": "owner",
          "type": "address"
        },
        {
          "indexed": true,
          "internalType": "address",
          "name": "operator",
          "type": "address"
        },
        {
          "indexed": false,
          "internalType": "bool",
          "name": "approved",
          "type": "bool"
        }
      ],
      "name": "ApprovalForAll",
      "type": "event"
    },
    {
      "anonymous": false,
      "inputs": [
        {
          "indexed": false,
          "internalType": "uint256",
          "name": "newBossHp",
          "type": "uint256"
        },
        {
          "indexed": false,
          "internalType": "uint256",
          "name": "newPlayerHp",
          "type": "uint256"
        }
      ],
      "name": "AttackComplete",
      "type": "event"
    },
    {
      "anonymous": false,
      "inputs": [
        {
          "indexed": false,
          "internalType": "address",
          "name": "sender",
          "type": "address"
        },
        {
          "indexed": false,
          "internalType": "uint256",
          "name": "tokenId",
          "type": "uint256"
        },
        {
          "indexed": false,
          "internalType": "uint256",
          "name": "characterIndex",
          "type": "uint256"
        }
      ],
      "name": "CharacterNFTMinted",
      "type": "event"
    },
    {
      "anonymous": false,
      "inputs": [
        {
          "indexed": true,
          "internalType": "address",
          "name": "from",
          "type": "address"
        },
        {
          "indexed": true,
          "internalType": "address",
          "name": "to",
          "type": "address"
        },
        {
          "indexed": true,
          "internalType": "uint256",
          "name": "tokenId",
          "type": "uint256"
        }
      ],
      "name": "Transfer",
      "type": "event"
    },
    {
      "inputs": [
        {
          "internalType": "address",
          "name": "to",
          "type": "address"
        },
        {
          "internalType": "uint256",
          "name": "tokenId",
          "type": "uint256"
        }
      ],
      "name": "approve",
      "outputs": [],
      "stateMutability": "nonpayable",
      "type": "function"
    },
    {
      "inputs": [],
      "name": "attackBoss",
      "outputs": [],
      "stateMutability": "nonpayable",
      "type": "function"
    },
    {
      "inputs": [
        {
          "internalType": "address",
          "name": "owner",
          "type": "address"
        }
      ],
      "name": "balanceOf",
      "outputs": [
        {
          "internalType": "uint256",
          "name": "",
          "type": "uint256"
        }
      ],
      "stateMutability": "view",
      "type": "function"
    },
    {
      "inputs": [],
      "name": "bigBoss",
      "outputs": [
        {
          "internalType": "string",
          "name": "name",
          "type": "string"
        },
        {
          "internalType": "string",
          "name": "imageURI",
          "type": "string"
        },
        {
          "internalType": "uint256",
          "name": "hp",
          "type": "uint256"
        },
        {
          "internalType": "uint256",
          "name": "maxHp",
          "type": "uint256"
        },
        {
          "internalType": "uint256",
          "name": "attack",
          "type": "uint256"
        }
      ],
      "stateMutability": "view",
      "type": "function"
    },
    {
      "inputs": [],
      "name": "checkIfUserHasNFT",
      "outputs": [
        {
          "components": [
            {
              "internalType": "uint256",
              "name": "characterIndex",
              "type": "uint256"
            },
            {
              "internalType": "string",
              "name": "name",
              "type": "string"
            },
            {
              "internalType": "string",
              "name": "imageURI",
              "type": "string"
            },
            {
              "internalType": "uint256",
              "name": "hp",
              "type": "uint256"
            },
            {
              "internalType": "uint256",
              "name": "maxHp",
              "type": "uint256"
            },
            {
              "internalType": "uint256",
              "name": "defense",
              "type": "uint256"
            },
            {
              "internalType": "uint256",
              "name": "attack",
              "type": "uint256"
            },
            {
              "internalType": "uint256",
              "name": "magic",
              "type": "uint256"
            },
            {
              "internalType": "uint256",
              "name": "faith",
              "type": "uint256"
            }
          ],
          "internalType": "struct WarhammerGame.CharacterAttributes",
          "name": "",
          "type": "tuple"
        }
      ],
      "stateMutability": "view",
      "type": "function"
    },
    {
      "inputs": [],
      "name": "getAllDefaultCharacters",
      "outputs": [
        {
          "components": [
            {
              "internalType": "uint256",
              "name": "characterIndex",
              "type": "uint256"
            },
            {
              "internalType": "string",
              "name": "name",
              "type": "string"
            },
            {
              "internalType": "string",
              "name": "imageURI",
              "type": "string"
            },
            {
              "internalType": "uint256",
              "name": "hp",
              "type": "uint256"
            },
            {
              "internalType": "uint256",
              "name": "maxHp",
              "type": "uint256"
            },
            {
              "internalType": "uint256",
              "name": "defense",
              "type": "uint256"
            },
            {
              "internalType": "uint256",
              "name": "attack",
              "type": "uint256"
            },
            {
              "internalType": "uint256",
              "name": "magic",
              "type": "uint256"
            },
            {
              "internalType": "uint256",
              "name": "faith",
              "type": "uint256"
            }
          ],
          "internalType": "struct WarhammerGame.CharacterAttributes[]",
          "name": "",
          "type": "tuple[]"
        }
      ],
      "stateMutability": "view",
      "type": "function"
    },
    {
      "inputs": [
        {
          "internalType": "uint256",
          "name": "tokenId",
          "type": "uint256"
        }
      ],
      "name": "getApproved",
      "outputs": [
        {
          "internalType": "address",
          "name": "",
          "type": "address"
        }
      ],
      "stateMutability": "view",
      "type": "function"
    },
    {
      "inputs": [],
      "name": "getBigBoss",
      "outputs": [
        {
          "components": [
            {
              "internalType": "string",
              "name": "name",
              "type": "string"
            },
            {
              "internalType": "string",
              "name": "imageURI",
              "type": "string"
            },
            {
              "internalType": "uint256",
              "name": "hp",
              "type": "uint256"
            },
            {
              "internalType": "uint256",
              "name": "maxHp",
              "type": "uint256"
            },
            {
              "internalType": "uint256",
              "name": "attack",
              "type": "uint256"
            }
          ],
          "internalType": "struct WarhammerGame.BigBoss",
          "name": "",
          "type": "tuple"
        }
      ],
      "stateMutability": "view",
      "type": "function"
    },
    {
      "inputs": [
        {
          "internalType": "address",
          "name": "owner",
          "type": "address"
        },
        {
          "internalType": "address",
          "name": "operator",
          "type": "address"
        }
      ],
      "name": "isApprovedForAll",
      "outputs": [
        {
          "internalType": "bool",
          "name": "",
          "type": "bool"
        }
      ],
      "stateMutability": "view",
      "type": "function"
    },
    {
      "inputs": [
        {
          "internalType": "uint256",
          "name": "_characterIndex",
          "type": "uint256"
        }
      ],
      "name": "mintCharacterNft",
      "outputs": [],
      "stateMutability": "nonpayable",
      "type": "function"
    },
    {
      "inputs": [],
      "name": "name",
      "outputs": [
        {
          "internalType": "string",
          "name": "",
          "type": "string"
        }
      ],
      "stateMutability": "view",
      "type": "function"
    },
    {
      "inputs": [
        {
          "internalType": "uint256",
          "name": "",
          "type": "uint256"
        }
      ],
      "name": "nftHolderAttributes",
      "outputs": [
        {
          "internalType": "uint256",
          "name": "characterIndex",
          "type": "uint256"
        },
        {
          "internalType": "string",
          "name": "name",
          "type": "string"
        },
        {
          "internalType": "string",
          "name": "imageURI",
          "type": "string"
        },
        {
          "internalType": "uint256",
          "name": "hp",
          "type": "uint256"
        },
        {
          "internalType": "uint256",
          "name": "maxHp",
          "type": "uint256"
        },
        {
          "internalType": "uint256",
          "name": "defense",
          "type": "uint256"
        },
        {
          "internalType": "uint256",
          "name": "attack",
          "type": "uint256"
        },
        {
          "internalType": "uint256",
          "name": "magic",
          "type": "uint256"
        },
        {
          "internalType": "uint256",
          "name": "faith",
          "type": "uint256"
        }
      ],
      "stateMutability": "view",
      "type": "function"
    },
    {
      "inputs": [
        {
          "internalType": "address",
          "name": "",
          "type": "address"
        }
      ],
      "name": "nftHolders",
      "outputs": [
        {
          "internalType": "uint256",
          "name": "",
          "type": "uint256"
        }
      ],
      "stateMutability": "view",
      "type": "function"
    },
    {
      "inputs": [
        {
          "internalType": "uint256",
          "name": "tokenId",
          "type": "uint256"
        }
      ],
      "name": "ownerOf",
      "outputs": [
        {
          "internalType": "address",
          "name": "",
          "type": "address"
        }
      ],
      "stateMutability": "view",
      "type": "function"
    },
    {
      "inputs": [
        {
          "internalType": "address",
          "name": "from",
          "type": "address"
        },
        {
          "internalType": "address",
          "name": "to",
          "type": "address"
        },
        {
          "internalType": "uint256",
          "name": "tokenId",
          "type": "uint256"
        }
      ],
      "name": "safeTransferFrom",
      "outputs": [],
      "stateMutability": "nonpayable",
      "type": "function"
    },
    {
      "inputs": [
        {
          "internalType": "address",
          "name": "from",
          "type": "address"
        },
        {
          "internalType": "address",
          "name": "to",
          "type": "address"
        },
        {
          "internalType": "uint256",
          "name": "tokenId",
          "type": "uint256"
        },
        {
          "internalType": "bytes",
          "name": "_data",
          "type": "bytes"
        }
      ],
      "name": "safeTransferFrom",
      "outputs": [],
      "stateMutability": "nonpayable",
      "type": "function"
    },
    {
      "inputs": [
        {
          "internalType": "address",
          "name": "operator",
          "type": "address"
        },
        {
          "internalType": "bool",
          "name": "approved",
          "type": "bool"
        }
      ],
      "name": "setApprovalForAll",
      "outputs": [],
      "stateMutability": "nonpayable",
      "type": "function"
    },
    {
      "inputs": [
        {
          "internalType": "bytes4",
          "name": "interfaceId",
          "type": "bytes4"
        }
      ],
      "name": "supportsInterface",
      "outputs": [
        {
          "internalType": "bool",
          "name": "",
          "type": "bool"
        }
      ],
      "stateMutability": "view",
      "type": "function"
    },
    {
      "inputs": [],
      "name": "symbol",
      "outputs": [
        {
          "internalType": "string",
          "name": "",
          "type": "string"
        }
      ],
      "stateMutability": "view",
      "type": "function"
    },
    {
      "inputs": [
        {
          "internalType": "uint256",
          "name": "_tokenId",
          "type": "uint256"
        }
      ],
      "name": "tokenURI",
      "outputs": [
        {
          "internalType": "string",
          "name": "",
          "type": "string"
        }
      ],
      "stateMutability": "view",
      "type": "function"
    },
    {
      "inputs": [
        {
          "internalType": "address",
          "name": "from",
          "type": "address"
        },
        {
          "internalType": "address",
          "name": "to",
          "type": "address"
        },
        {
          "internalType": "uint256",
          "name": "tokenId",
          "type": "uint256"
        }
      ],
      "name": "transferFrom",
      "outputs": [],
      "stateMutability": "nonpayable",
      "type": "function"
    }
  ],
  "bytecode": "0x60806040523480156200001157600080fd5b5060405162005b2f38038062005b2f833981810160405281019062000037919062000a10565b6040518060400160405280601081526020017f57617268616d6d6572204865726f6573000000000000000000000000000000008152506040518060400160405280600481526020017f57415248000000000000000000000000000000000000000000000000000000008152508160009080519060200190620000bb929190620007a3565b508060019080519060200190620000d4929190620007a3565b5050506040518060a0016040528085815260200184815260200183815260200183815260200182815250600960008201518160000190805190602001906200011e929190620007a3565b5060208201518160010190805190602001906200013d929190620007a3565b5060408201518160020155606082015181600301556080820151816004015590505060005b8b518110156200068f5760076040518061012001604052808381526020018e8481518110620001ba577f4e487b7100000000000000000000000000000000000000000000000000000000600052603260045260246000fd5b602002602001015181526020018d848151811062000201577f4e487b7100000000000000000000000000000000000000000000000000000000600052603260045260246000fd5b602002602001015181526020018c848151811062000248577f4e487b7100000000000000000000000000000000000000000000000000000000600052603260045260246000fd5b602002602001015181526020018c84815181106200028f577f4e487b7100000000000000000000000000000000000000000000000000000000600052603260045260246000fd5b602002602001015181526020018a8481518110620002d6577f4e487b7100000000000000000000000000000000000000000000000000000000600052603260045260246000fd5b602002602001015181526020018b84815181106200031d577f4e487b7100000000000000000000000000000000000000000000000000000000600052603260045260246000fd5b6020026020010151815260200189848151811062000364577f4e487b7100000000000000000000000000000000000000000000000000000000600052603260045260246000fd5b60200260200101518152602001888481518110620003ab577f4e487b7100000000000000000000000000000000000000000000000000000000600052603260045260246000fd5b6020026020010151815250908060018154018082558091505060019003906000526020600020906009020160009091909190915060008201518160000155602082015181600101908051906020019062000407929190620007a3565b50604082015181600201908051906020019062000426929190620007a3565b50606082015181600301556080820151816004015560a0820151816005015560c0820151816006015560e0820151816007015561010082015181600801555050600060078281548110620004a3577f4e487b7100000000000000000000000000000000000000000000000000000000600052603260045260246000fd5b90600052602060002090600902016040518061012001604052908160008201548152602001600182018054620004d99062000e2a565b80601f0160208091040260200160405190810160405280929190818152602001828054620005079062000e2a565b8015620005585780601f106200052c5761010080835404028352916020019162000558565b820191906000526020600020905b8154815290600101906020018083116200053a57829003601f168201915b50505050508152602001600282018054620005739062000e2a565b80601f0160208091040260200160405190810160405280929190818152602001828054620005a19062000e2a565b8015620005f25780601f10620005c657610100808354040283529160200191620005f2565b820191906000526020600020905b815481529060010190602001808311620005d457829003601f168201915b50505050508152602001600382015481526020016004820154815260200160058201548152602001600682015481526020016007820154815260200160088201548152505090506200067760405180606001604052806025815260200162005b0a60259139826020015183606001518460400151620006b860201b62001f021760201c565b5060018162000687919062000d8d565b905062000162565b50620006a760066200076460201b62001fa41760201c565b505050505050505050505062000f18565b6200075e84848484604051602401620006d5949392919062000c4a565b6040516020818303038152906040527f8d142cdd000000000000000000000000000000000000000000000000000000007bffffffffffffffffffffffffffffffffffffffffffffffffffffffff19166020820180517bffffffffffffffffffffffffffffffffffffffffffffffffffffffff83818316178352505050506200077a60201b60201c565b50505050565b6001816000016000828254019250508190555050565b60008151905060006a636f6e736f6c652e6c6f679050602083016000808483855afa5050505050565b828054620007b19062000e2a565b90600052602060002090601f016020900481019282620007d5576000855562000821565b82601f10620007f057805160ff191683800117855562000821565b8280016001018555821562000821579182015b828111156200082057825182559160200191906001019062000803565b5b50905062000830919062000834565b5090565b5b808211156200084f57600081600090555060010162000835565b5090565b60006200086a620008648462000ce0565b62000cac565b9050808382526020820190508260005b85811015620008ae5781518501620008938882620009cc565b8452602084019350602083019250506001810190506200087a565b5050509392505050565b6000620008cf620008c98462000d0f565b62000cac565b90508083825260208201905082856020860282011115620008ef57600080fd5b60005b85811015620009235781620009088882620009f9565b845260208401935060208301925050600181019050620008f2565b5050509392505050565b6000620009446200093e8462000d3e565b62000cac565b9050828152602081018484840111156200095d57600080fd5b6200096a84828562000df4565b509392505050565b600082601f8301126200098457600080fd5b81516200099684826020860162000853565b91505092915050565b600082601f830112620009b157600080fd5b8151620009c3848260208601620008b8565b91505092915050565b600082601f830112620009de57600080fd5b8151620009f08482602086016200092d565b91505092915050565b60008151905062000a0a8162000efe565b92915050565b60008060008060008060008060008060006101608c8e03121562000a3357600080fd5b60008c015167ffffffffffffffff81111562000a4e57600080fd5b62000a5c8e828f0162000972565b9b505060208c015167ffffffffffffffff81111562000a7a57600080fd5b62000a888e828f0162000972565b9a505060408c015167ffffffffffffffff81111562000aa657600080fd5b62000ab48e828f016200099f565b99505060608c015167ffffffffffffffff81111562000ad257600080fd5b62000ae08e828f016200099f565b98505060808c015167ffffffffffffffff81111562000afe57600080fd5b62000b0c8e828f016200099f565b97505060a08c015167ffffffffffffffff81111562000b2a57600080fd5b62000b388e828f016200099f565b96505060c08c015167ffffffffffffffff81111562000b5657600080fd5b62000b648e828f016200099f565b95505060e08c015167ffffffffffffffff81111562000b8257600080fd5b62000b908e828f01620009cc565b9450506101008c015167ffffffffffffffff81111562000baf57600080fd5b62000bbd8e828f01620009cc565b93505061012062000bd18e828f01620009f9565b92505061014062000be58e828f01620009f9565b9150509295989b509295989b9093969950565b600062000c058262000d71565b62000c11818562000d7c565b935062000c2381856020860162000df4565b62000c2e8162000eed565b840191505092915050565b62000c448162000dea565b82525050565b6000608082019050818103600083015262000c66818762000bf8565b9050818103602083015262000c7c818662000bf8565b905062000c8d604083018562000c39565b818103606083015262000ca1818462000bf8565b905095945050505050565b6000604051905081810181811067ffffffffffffffff8211171562000cd65762000cd562000ebe565b5b8060405250919050565b600067ffffffffffffffff82111562000cfe5762000cfd62000ebe565b5b602082029050602081019050919050565b600067ffffffffffffffff82111562000d2d5762000d2c62000ebe565b5b602082029050602081019050919050565b600067ffffffffffffffff82111562000d5c5762000d5b62000ebe565b5b601f19601f8301169050602081019050919050565b600081519050919050565b600082825260208201905092915050565b600062000d9a8262000dea565b915062000da78362000dea565b9250827fffffffffffffffffffffffffffffffffffffffffffffffffffffffffffffffff0382111562000ddf5762000dde62000e60565b5b828201905092915050565b6000819050919050565b60005b8381101562000e1457808201518184015260208101905062000df7565b8381111562000e24576000848401525b50505050565b6000600282049050600182168062000e4357607f821691505b6020821081141562000e5a5762000e5962000e8f565b5b50919050565b7f4e487b7100000000000000000000000000000000000000000000000000000000600052601160045260246000fd5b7f4e487b7100000000000000000000000000000000000000000000000000000000600052602260045260246000fd5b7f4e487b7100000000000000000000000000000000000000000000000000000000600052604160045260246000fd5b6000601f19601f8301169050919050565b62000f098162000dea565b811462000f1557600080fd5b50565b614be28062000f286000396000f3fe608060405234801561001057600080fd5b50600436106101375760003560e01c80637df124a1116100b8578063b88d4fde1161007c578063b88d4fde1461036c578063b953084e14610388578063c87b56dd146103a6578063c8cf27f4146103d6578063d4f24c5b146103f4578063e985e9c5146103fe57610137565b80637df124a1146102a857806395d89b41146102d857806398da4c95146102f6578063a22cb4651461032e578063a9c326791461034a57610137565b806323b872dd116100ff57806323b872dd146101f457806342842e0e1461021057806355e7ac6c1461022c5780636352211e1461024857806370a082311461027857610137565b806301ffc9a71461013c5780630665f9611461016c57806306fdde031461018a578063081812fc146101a8578063095ea7b3146101d8575b600080fd5b610156600480360381019061015191906131f2565b61042e565b604051610163919061416a565b60405180910390f35b610174610510565b6040516101819190614503565b60405180910390f35b61019261066c565b60405161019f9190614185565b60405180910390f35b6101c260048036038101906101bd9190613244565b6106fe565b6040516101cf91906140aa565b60405180910390f35b6101f260048036038101906101ed91906131b6565b610783565b005b61020e600480360381019061020991906130b0565b61089b565b005b61022a600480360381019061022591906130b0565b6108fb565b005b61024660048036038101906102419190613244565b61091b565b005b610262600480360381019061025d9190613244565b610e22565b60405161026f91906140aa565b60405180910390f35b610292600480360381019061028d919061304b565b610ed4565b60405161029f9190614547565b60405180910390f35b6102c260048036038101906102bd919061304b565b610f8c565b6040516102cf9190614547565b60405180910390f35b6102e0610fa4565b6040516102ed9190614185565b60405180910390f35b610310600480360381019061030b9190613244565b611036565b60405161032599989796959493929190614562565b60405180910390f35b6103486004803603810190610343919061317a565b611194565b005b610352611315565b604051610363959493929190614254565b60405180910390f35b610386600480360381019061038191906130ff565b611449565b005b6103906114ab565b60405161039d9190614148565b60405180910390f35b6103c060048036038101906103bb9190613244565b611675565b6040516103cd9190614185565b60405180910390f35b6103de6118ec565b6040516103eb9190614525565b60405180910390f35b6103fc611ae3565b005b61041860048036038101906104139190613074565b611e6e565b604051610425919061416a565b60405180910390f35b60007f80ac58cd000000000000000000000000000000000000000000000000000000007bffffffffffffffffffffffffffffffffffffffffffffffffffffffff1916827bffffffffffffffffffffffffffffffffffffffffffffffffffffffff191614806104f957507f5b5e139f000000000000000000000000000000000000000000000000000000007bffffffffffffffffffffffffffffffffffffffffffffffffffffffff1916827bffffffffffffffffffffffffffffffffffffffffffffffffffffffff1916145b80610509575061050882611fba565b5b9050919050565b610518612e5c565b60096040518060a0016040529081600082018054610535906148df565b80601f0160208091040260200160405190810160405280929190818152602001828054610561906148df565b80156105ae5780601f10610583576101008083540402835291602001916105ae565b820191906000526020600020905b81548152906001019060200180831161059157829003601f168201915b505050505081526020016001820180546105c7906148df565b80601f01602080910402602001604051908101604052809291908181526020018280546105f3906148df565b80156106405780601f1061061557610100808354040283529160200191610640565b820191906000526020600020905b81548152906001019060200180831161062357829003601f168201915b505050505081526020016002820154815260200160038201548152602001600482015481525050905090565b60606000805461067b906148df565b80601f01602080910402602001604051908101604052809291908181526020018280546106a7906148df565b80156106f45780601f106106c9576101008083540402835291602001916106f4565b820191906000526020600020905b8154815290600101906020018083116106d757829003601f168201915b5050505050905090565b600061070982612024565b610748576040517f08c379a000000000000000000000000000000000000000000000000000000000815260040161073f90614483565b60405180910390fd5b6004600083815260200190815260200160002060009054906101000a900473ffffffffffffffffffffffffffffffffffffffff169050919050565b600061078e82610e22565b90508073ffffffffffffffffffffffffffffffffffffffff168373ffffffffffffffffffffffffffffffffffffffff1614156107ff576040517f08c379a00000000000000000000000000000000000000000000000000000000081526004016107f6906144c3565b60405180910390fd5b8073ffffffffffffffffffffffffffffffffffffffff1661081e612090565b73ffffffffffffffffffffffffffffffffffffffff16148061084d575061084c81610847612090565b611e6e565b5b61088c576040517f08c379a000000000000000000000000000000000000000000000000000000000815260040161088390614403565b60405180910390fd5b6108968383612098565b505050565b6108ac6108a6612090565b82612151565b6108eb576040517f08c379a00000000000000000000000000000000000000000000000000000000081526004016108e2906144e3565b60405180910390fd5b6108f683838361222f565b505050565b61091683838360405180602001604052806000815250611449565b505050565b6000610927600661248b565b90506109333382612499565b6040518061012001604052808381526020016007848154811061097f577f4e487b7100000000000000000000000000000000000000000000000000000000600052603260045260246000fd5b9060005260206000209060090201600101805461099b906148df565b80601f01602080910402602001604051908101604052809291908181526020018280546109c7906148df565b8015610a145780601f106109e957610100808354040283529160200191610a14565b820191906000526020600020905b8154815290600101906020018083116109f757829003601f168201915b5050505050815260200160078481548110610a58577f4e487b7100000000000000000000000000000000000000000000000000000000600052603260045260246000fd5b90600052602060002090600902016002018054610a74906148df565b80601f0160208091040260200160405190810160405280929190818152602001828054610aa0906148df565b8015610aed5780601f10610ac257610100808354040283529160200191610aed565b820191906000526020600020905b815481529060010190602001808311610ad057829003601f168201915b5050505050815260200160078481548110610b31577f4e487b7100000000000000000000000000000000000000000000000000000000600052603260045260246000fd5b906000526020600020906009020160030154815260200160078481548110610b82577f4e487b7100000000000000000000000000000000000000000000000000000000600052603260045260246000fd5b906000526020600020906009020160030154815260200160078481548110610bd3577f4e487b7100000000000000000000000000000000000000000000000000000000600052603260045260246000fd5b906000526020600020906009020160050154815260200160078481548110610c24577f4e487b7100000000000000000000000000000000000000000000000000000000600052603260045260246000fd5b906000526020600020906009020160060154815260200160078481548110610c75577f4e487b7100000000000000000000000000000000000000000000000000000000600052603260045260246000fd5b906000526020600020906009020160070154815260200160078481548110610cc6577f4e487b7100000000000000000000000000000000000000000000000000000000600052603260045260246000fd5b90600052602060002090600902016008015481525060086000838152602001908152602001600020600082015181600001556020820151816001019080519060200190610d14929190612e8b565b506040820151816002019080519060200190610d31929190612e8b565b50606082015181600301556080820151816004015560a0820151816005015560c0820151816006015560e082015181600701556101008201518160080155905050610d956040518060600160405280602e8152602001614b42602e913982846124b7565b80600e60003373ffffffffffffffffffffffffffffffffffffffff1673ffffffffffffffffffffffffffffffffffffffff16815260200190815260200160002081905550610de36006611fa4565b7f4bc303fd457a97b4691b9af582ce71868a3d258638c8d4f8c60988a0f0bfb8cd338284604051610e1693929190614111565b60405180910390a15050565b6000806002600084815260200190815260200160002060009054906101000a900473ffffffffffffffffffffffffffffffffffffffff169050600073ffffffffffffffffffffffffffffffffffffffff168173ffffffffffffffffffffffffffffffffffffffff161415610ecb576040517f08c379a0000000000000000000000000000000000000000000000000000000008152600401610ec290614443565b60405180910390fd5b80915050919050565b60008073ffffffffffffffffffffffffffffffffffffffff168273ffffffffffffffffffffffffffffffffffffffff161415610f45576040517f08c379a0000000000000000000000000000000000000000000000000000000008152600401610f3c90614423565b60405180910390fd5b600360008373ffffffffffffffffffffffffffffffffffffffff1673ffffffffffffffffffffffffffffffffffffffff168152602001908152602001600020549050919050565b600e6020528060005260406000206000915090505481565b606060018054610fb3906148df565b80601f0160208091040260200160405190810160405280929190818152602001828054610fdf906148df565b801561102c5780601f106110015761010080835404028352916020019161102c565b820191906000526020600020905b81548152906001019060200180831161100f57829003601f168201915b5050505050905090565b600860205280600052604060002060009150905080600001549080600101805461105f906148df565b80601f016020809104026020016040519081016040528092919081815260200182805461108b906148df565b80156110d85780601f106110ad576101008083540402835291602001916110d8565b820191906000526020600020905b8154815290600101906020018083116110bb57829003601f168201915b5050505050908060020180546110ed906148df565b80601f0160208091040260200160405190810160405280929190818152602001828054611119906148df565b80156111665780601f1061113b57610100808354040283529160200191611166565b820191906000526020600020905b81548152906001019060200180831161114957829003601f168201915b5050505050908060030154908060040154908060050154908060060154908060070154908060080154905089565b61119c612090565b73ffffffffffffffffffffffffffffffffffffffff168273ffffffffffffffffffffffffffffffffffffffff16141561120a576040517f08c379a0000000000000000000000000000000000000000000000000000000008152600401611201906143c3565b60405180910390fd5b8060056000611217612090565b73ffffffffffffffffffffffffffffffffffffffff1673ffffffffffffffffffffffffffffffffffffffff16815260200190815260200160002060008473ffffffffffffffffffffffffffffffffffffffff1673ffffffffffffffffffffffffffffffffffffffff16815260200190815260200160002060006101000a81548160ff0219169083151502179055508173ffffffffffffffffffffffffffffffffffffffff166112c4612090565b73ffffffffffffffffffffffffffffffffffffffff167f17307eab39ab6107e8899845ad3d59bd9653f200f220920489ca2b5937696c3183604051611309919061416a565b60405180910390a35050565b6009806000018054611326906148df565b80601f0160208091040260200160405190810160405280929190818152602001828054611352906148df565b801561139f5780601f106113745761010080835404028352916020019161139f565b820191906000526020600020905b81548152906001019060200180831161138257829003601f168201915b5050505050908060010180546113b4906148df565b80601f01602080910402602001604051908101604052809291908181526020018280546113e0906148df565b801561142d5780601f106114025761010080835404028352916020019161142d565b820191906000526020600020905b81548152906001019060200180831161141057829003601f168201915b5050505050908060020154908060030154908060040154905085565b61145a611454612090565b83612151565b611499576040517f08c379a0000000000000000000000000000000000000000000000000000000008152600401611490906144e3565b60405180910390fd5b6114a584848484612556565b50505050565b60606007805480602002602001604051908101604052809291908181526020016000905b8282101561166c5783829060005260206000209060090201604051806101200160405290816000820154815260200160018201805461150d906148df565b80601f0160208091040260200160405190810160405280929190818152602001828054611539906148df565b80156115865780601f1061155b57610100808354040283529160200191611586565b820191906000526020600020905b81548152906001019060200180831161156957829003601f168201915b5050505050815260200160028201805461159f906148df565b80601f01602080910402602001604051908101604052809291908181526020018280546115cb906148df565b80156116185780601f106115ed57610100808354040283529160200191611618565b820191906000526020600020905b8154815290600101906020018083116115fb57829003601f168201915b505050505081526020016003820154815260200160048201548152602001600582015481526020016006820154815260200160078201548152602001600882015481525050815260200190600101906114cf565b50505050905090565b606060006008600084815260200190815260200160002060405180610120016040529081600082015481526020016001820180546116b2906148df565b80601f01602080910402602001604051908101604052809291908181526020018280546116de906148df565b801561172b5780601f106117005761010080835404028352916020019161172b565b820191906000526020600020905b81548152906001019060200180831161170e57829003601f168201915b50505050508152602001600282018054611744906148df565b80601f0160208091040260200160405190810160405280929190818152602001828054611770906148df565b80156117bd5780601f10611792576101008083540402835291602001916117bd565b820191906000526020600020905b8154815290600101906020018083116117a057829003601f168201915b5050505050815260200160038201548152602001600482015481526020016005820154815260200160068201548152602001600782015481526020016008820154815250509050600061181382606001516125b2565b9050600061182483608001516125b2565b905060006118358460c001516125b2565b905060006118468560a001516125b2565b905060006118578660e001516125b2565b905060006118698761010001516125b2565b905060006118b5886020015161187e8c6125b2565b8a604001518a8a8a8a8a8a6040516020016118a199989796959493929190613f9b565b60405160208183030381529060405261275f565b90506000816040516020016118ca9190614088565b6040516020818303038152906040529050809950505050505050505050919050565b6118f4612f11565b6000600e60003373ffffffffffffffffffffffffffffffffffffffff1673ffffffffffffffffffffffffffffffffffffffff1681526020019081526020016000205490506000811115611ad25760086000828152602001908152602001600020604051806101200160405290816000820154815260200160018201805461197a906148df565b80601f01602080910402602001604051908101604052809291908181526020018280546119a6906148df565b80156119f35780601f106119c8576101008083540402835291602001916119f3565b820191906000526020600020905b8154815290600101906020018083116119d657829003601f168201915b50505050508152602001600282018054611a0c906148df565b80601f0160208091040260200160405190810160405280929190818152602001828054611a38906148df565b8015611a855780601f10611a5a57610100808354040283529160200191611a85565b820191906000526020600020905b815481529060010190602001808311611a6857829003601f168201915b505050505081526020016003820154815260200160048201548152602001600582015481526020016006820154815260200160078201548152602001600882015481525050915050611ae0565b611ada612f11565b80925050505b90565b6000600e60003373ffffffffffffffffffffffffffffffffffffffff1673ffffffffffffffffffffffffffffffffffffffff1681526020019081526020016000205490506000600860008381526020019081526020016000209050611bf66040518060600160405280603d8152602001614b70603d9139826001018054611b69906148df565b80601f0160208091040260200160405190810160405280929190818152602001828054611b95906148df565b8015611be25780601f10611bb757610100808354040283529160200191611be2565b820191906000526020600020905b815481529060010190602001808311611bc557829003601f168201915b50505050508360030154846006015461291d565b611cce6040518060400160405280601c81526020017f426f73732025732068617320257320485020616e642025732041544b0000000081525060096000018054611c3f906148df565b80601f0160208091040260200160405190810160405280929190818152602001828054611c6b906148df565b8015611cb85780601f10611c8d57610100808354040283529160200191611cb8565b820191906000526020600020905b815481529060010190602001808311611c9b57829003601f168201915b505050505060096002015460096004015461291d565b6000816003015411611d15576040517f08c379a0000000000000000000000000000000000000000000000000000000008152600401611d0c90614383565b60405180910390fd5b600060096002015411611d5d576040517f08c379a0000000000000000000000000000000000000000000000000000000008152600401611d5490614343565b60405180910390fd5b80600601546009600201541015611d7e576000600960020181905550611d9d565b8060060154600960020154611d9391906147f5565b6009600201819055505b60096004015481600301541015611dbd5760008160030181905550611ddb565b6009600401548160030154611dd291906147f5565b81600301819055505b611e02604051806060016040528060258152602001614ab5602591396009600201546129bf565b611e28604051806060016040528060288152602001614b1a6028913982600301546129bf565b7f838ab28464562786a6c4ab2311964b82fa60bd9b14aa7e856af1f3f18d41a4146009600201548260030154604051611e629291906145fd565b60405180910390a15050565b6000600560008473ffffffffffffffffffffffffffffffffffffffff1673ffffffffffffffffffffffffffffffffffffffff16815260200190815260200160002060008373ffffffffffffffffffffffffffffffffffffffff1673ffffffffffffffffffffffffffffffffffffffff16815260200190815260200160002060009054906101000a900460ff16905092915050565b611f9e84848484604051602401611f1c94939291906141a7565b6040516020818303038152906040527f8d142cdd000000000000000000000000000000000000000000000000000000007bffffffffffffffffffffffffffffffffffffffffffffffffffffffff19166020820180517bffffffffffffffffffffffffffffffffffffffffffffffffffffffff8381831617835250505050612a5b565b50505050565b6001816000016000828254019250508190555050565b60007f01ffc9a7000000000000000000000000000000000000000000000000000000007bffffffffffffffffffffffffffffffffffffffffffffffffffffffff1916827bffffffffffffffffffffffffffffffffffffffffffffffffffffffff1916149050919050565b60008073ffffffffffffffffffffffffffffffffffffffff166002600084815260200190815260200160002060009054906101000a900473ffffffffffffffffffffffffffffffffffffffff1673ffffffffffffffffffffffffffffffffffffffff1614159050919050565b600033905090565b816004600083815260200190815260200160002060006101000a81548173ffffffffffffffffffffffffffffffffffffffff021916908373ffffffffffffffffffffffffffffffffffffffff160217905550808273ffffffffffffffffffffffffffffffffffffffff1661210b83610e22565b73ffffffffffffffffffffffffffffffffffffffff167f8c5be1e5ebec7d5bd14f71427d1e84f3dd0314c0f7b2291e5b200ac8c7c3b92560405160405180910390a45050565b600061215c82612024565b61219b576040517f08c379a0000000000000000000000000000000000000000000000000000000008152600401612192906143e3565b60405180910390fd5b60006121a683610e22565b90508073ffffffffffffffffffffffffffffffffffffffff168473ffffffffffffffffffffffffffffffffffffffff16148061221557508373ffffffffffffffffffffffffffffffffffffffff166121fd846106fe565b73ffffffffffffffffffffffffffffffffffffffff16145b8061222657506122258185611e6e565b5b91505092915050565b8273ffffffffffffffffffffffffffffffffffffffff1661224f82610e22565b73ffffffffffffffffffffffffffffffffffffffff16146122a5576040517f08c379a000000000000000000000000000000000000000000000000000000000815260040161229c906144a3565b60405180910390fd5b600073ffffffffffffffffffffffffffffffffffffffff168273ffffffffffffffffffffffffffffffffffffffff161415612315576040517f08c379a000000000000000000000000000000000000000000000000000000000815260040161230c906143a3565b60405180910390fd5b612320838383612a84565b61232b600082612098565b6001600360008573ffffffffffffffffffffffffffffffffffffffff1673ffffffffffffffffffffffffffffffffffffffff168152602001908152602001600020600082825461237b91906147f5565b925050819055506001600360008473ffffffffffffffffffffffffffffffffffffffff1673ffffffffffffffffffffffffffffffffffffffff16815260200190815260200160002060008282546123d29190614714565b92505081905550816002600083815260200190815260200160002060006101000a81548173ffffffffffffffffffffffffffffffffffffffff021916908373ffffffffffffffffffffffffffffffffffffffff160217905550808273ffffffffffffffffffffffffffffffffffffffff168473ffffffffffffffffffffffffffffffffffffffff167fddf252ad1be2c89b69c2b068fc378daa952ba7f163c4a11628f55a4df523b3ef60405160405180910390a4505050565b600081600001549050919050565b6124b3828260405180602001604052806000815250612a89565b5050565b6125518383836040516024016124cf939291906142e5565b6040516020818303038152906040527f969cdd03000000000000000000000000000000000000000000000000000000007bffffffffffffffffffffffffffffffffffffffffffffffffffffffff19166020820180517bffffffffffffffffffffffffffffffffffffffffffffffffffffffff8381831617835250505050612a5b565b505050565b61256184848461222f565b61256d84848484612ae4565b6125ac576040517f08c379a00000000000000000000000000000000000000000000000000000000081526004016125a390614323565b60405180910390fd5b50505050565b606060008214156125fa576040518060400160405280600181526020017f3000000000000000000000000000000000000000000000000000000000000000815250905061275a565b600082905060005b6000821461262c57808061261590614911565b915050600a82612625919061476a565b9150612602565b60008167ffffffffffffffff81111561266e577f4e487b7100000000000000000000000000000000000000000000000000000000600052604160045260246000fd5b6040519080825280601f01601f1916602001820160405280156126a05781602001600182028036833780820191505090505b5090505b60008514612753576001826126b991906147f5565b9150600a856126c8919061495a565b60306126d49190614714565b60f81b818381518110612710577f4e487b7100000000000000000000000000000000000000000000000000000000600052603260045260246000fd5b60200101907effffffffffffffffffffffffffffffffffffffffffffffffffffffffffffff1916908160001a905350600a8561274c919061476a565b94506126a4565b8093505050505b919050565b606060008251905060008114156127885760405180602001604052806000815250915050612918565b600060036002836127999190614714565b6127a3919061476a565b60046127af919061479b565b905060006020826127c09190614714565b67ffffffffffffffff8111156127ff577f4e487b7100000000000000000000000000000000000000000000000000000000600052604160045260246000fd5b6040519080825280601f01601f1916602001820160405280156128315781602001600182028036833780820191505090505b5090506000604051806060016040528060408152602001614ada604091399050600181016020830160005b868110156128d55760038101905062ffffff818a015116603f8160121c168401518060081b905060ff603f83600c1c1686015116810190508060081b905060ff603f8360061c1686015116810190508060081b905060ff603f831686015116810190508060e01b9050808452600484019350505061285c565b5060038606600181146128ef57600281146128ff5761290a565b613d3d60f01b600283035261290a565b603d60f81b60018303525b508484525050819450505050505b919050565b6129b9848484846040516024016129379493929190614201565b6040516020818303038152906040527fd5cf17d0000000000000000000000000000000000000000000000000000000007bffffffffffffffffffffffffffffffffffffffffffffffffffffffff19166020820180517bffffffffffffffffffffffffffffffffffffffffffffffffffffffff8381831617835250505050612a5b565b50505050565b612a5782826040516024016129d59291906142b5565b6040516020818303038152906040527f9710a9d0000000000000000000000000000000000000000000000000000000007bffffffffffffffffffffffffffffffffffffffffffffffffffffffff19166020820180517bffffffffffffffffffffffffffffffffffffffffffffffffffffffff8381831617835250505050612a5b565b5050565b60008151905060006a636f6e736f6c652e6c6f679050602083016000808483855afa5050505050565b505050565b612a938383612c7b565b612aa06000848484612ae4565b612adf576040517f08c379a0000000000000000000000000000000000000000000000000000000008152600401612ad690614323565b60405180910390fd5b505050565b6000612b058473ffffffffffffffffffffffffffffffffffffffff16612e49565b15612c6e578373ffffffffffffffffffffffffffffffffffffffff1663150b7a02612b2e612090565b8786866040518563ffffffff1660e01b8152600401612b5094939291906140c5565b602060405180830381600087803b158015612b6a57600080fd5b505af1925050508015612b9b57506040513d601f19601f82011682018060405250810190612b98919061321b565b60015b612c1e573d8060008114612bcb576040519150601f19603f3d011682016040523d82523d6000602084013e612bd0565b606091505b50600081511415612c16576040517f08c379a0000000000000000000000000000000000000000000000000000000008152600401612c0d90614323565b60405180910390fd5b805181602001fd5b63150b7a0260e01b7bffffffffffffffffffffffffffffffffffffffffffffffffffffffff1916817bffffffffffffffffffffffffffffffffffffffffffffffffffffffff191614915050612c73565b600190505b949350505050565b600073ffffffffffffffffffffffffffffffffffffffff168273ffffffffffffffffffffffffffffffffffffffff161415612ceb576040517f08c379a0000000000000000000000000000000000000000000000000000000008152600401612ce290614463565b60405180910390fd5b612cf481612024565b15612d34576040517f08c379a0000000000000000000000000000000000000000000000000000000008152600401612d2b90614363565b60405180910390fd5b612d4060008383612a84565b6001600360008473ffffffffffffffffffffffffffffffffffffffff1673ffffffffffffffffffffffffffffffffffffffff1681526020019081526020016000206000828254612d909190614714565b92505081905550816002600083815260200190815260200160002060006101000a81548173ffffffffffffffffffffffffffffffffffffffff021916908373ffffffffffffffffffffffffffffffffffffffff160217905550808273ffffffffffffffffffffffffffffffffffffffff16600073ffffffffffffffffffffffffffffffffffffffff167fddf252ad1be2c89b69c2b068fc378daa952ba7f163c4a11628f55a4df523b3ef60405160405180910390a45050565b600080823b905060008111915050919050565b6040518060a0016040528060608152602001606081526020016000815260200160008152602001600081525090565b828054612e97906148df565b90600052602060002090601f016020900481019282612eb95760008555612f00565b82601f10612ed257805160ff1916838001178555612f00565b82800160010185558215612f00579182015b82811115612eff578251825591602001919060010190612ee4565b5b509050612f0d9190612f5d565b5090565b6040518061012001604052806000815260200160608152602001606081526020016000815260200160008152602001600081526020016000815260200160008152602001600081525090565b5b80821115612f76576000816000905550600101612f5e565b5090565b6000612f8d612f8884614657565b614626565b905082815260208101848484011115612fa557600080fd5b612fb084828561489d565b509392505050565b600081359050612fc781614a58565b92915050565b600081359050612fdc81614a6f565b92915050565b600081359050612ff181614a86565b92915050565b60008151905061300681614a86565b92915050565b600082601f83011261301d57600080fd5b813561302d848260208601612f7a565b91505092915050565b60008135905061304581614a9d565b92915050565b60006020828403121561305d57600080fd5b600061306b84828501612fb8565b91505092915050565b6000806040838503121561308757600080fd5b600061309585828601612fb8565b92505060206130a685828601612fb8565b9150509250929050565b6000806000606084860312156130c557600080fd5b60006130d386828701612fb8565b93505060206130e486828701612fb8565b92505060406130f586828701613036565b9150509250925092565b6000806000806080858703121561311557600080fd5b600061312387828801612fb8565b945050602061313487828801612fb8565b935050604061314587828801613036565b925050606085013567ffffffffffffffff81111561316257600080fd5b61316e8782880161300c565b91505092959194509250565b6000806040838503121561318d57600080fd5b600061319b85828601612fb8565b92505060206131ac85828601612fcd565b9150509250929050565b600080604083850312156131c957600080fd5b60006131d785828601612fb8565b92505060206131e885828601613036565b9150509250929050565b60006020828403121561320457600080fd5b600061321284828501612fe2565b91505092915050565b60006020828403121561322d57600080fd5b600061323b84828501612ff7565b91505092915050565b60006020828403121561325657600080fd5b600061326484828501613036565b91505092915050565b60006132798383613de5565b905092915050565b61328a81614829565b82525050565b600061329b82614697565b6132a581856146c5565b9350836020820285016132b785614687565b8060005b858110156132f357848403895281516132d4858261326d565b94506132df836146b8565b925060208a019950506001810190506132bb565b50829750879550505050505092915050565b61330e8161483b565b82525050565b600061331f826146a2565b61332981856146d6565b93506133398185602086016148ac565b61334281614a47565b840191505092915050565b6000613358826146ad565b61336281856146e7565b93506133728185602086016148ac565b61337b81614a47565b840191505092915050565b6000613391826146ad565b61339b81856146f8565b93506133ab8185602086016148ac565b6133b481614a47565b840191505092915050565b60006133ca826146ad565b6133d48185614709565b93506133e48185602086016148ac565b80840191505092915050565b60006133fd600b83614709565b91507f202d2d204e465420233a200000000000000000000000000000000000000000006000830152600b82019050919050565b600061343d6032836146f8565b91507f4552433732313a207472616e7366657220746f206e6f6e20455243373231526560008301527f63656976657220696d706c656d656e74657200000000000000000000000000006020830152604082019050919050565b60006134a36028836146f8565b91507f4572726f723a20626f7373206d757374206861766520485020746f206174746160008301527f636b20626f73732e0000000000000000000000000000000000000000000000006020830152604082019050919050565b6000613509601c836146f8565b91507f4552433732313a20746f6b656e20616c7265616479206d696e746564000000006000830152602082019050919050565b6000613549606c83614709565b91507f222c20226465736372697074696f6e223a20225468697320697320616e204e4660008301527f54206f6620612057617268616d6d6572204865726f20726561647920746f207360208301527f6c61792074686520666f72636573206f66204368616f7321222c2022696d616760408301527f65223a2022697066733a2f2f00000000000000000000000000000000000000006060830152606c82019050919050565b60006135fb602483614709565b91507f7d2c207b2274726169745f74797065223a20224d61676963222c202276616c7560008301527f65223a20000000000000000000000000000000000000000000000000000000006020830152602482019050919050565b6000613661600e83614709565b91507f2c20226d61785f76616c7565223a0000000000000000000000000000000000006000830152600e82019050919050565b60006136a16036836146f8565b91507f4572726f723a204865726f206d75737420626520616c69766520746f20636f6e60008301527f74696e75652064656d6f6e69632070757267696e672e000000000000000000006020830152604082019050919050565b60006137076024836146f8565b91507f4552433732313a207472616e7366657220746f20746865207a65726f2061646460008301527f72657373000000000000000000000000000000000000000000000000000000006020830152604082019050919050565b600061376d6019836146f8565b91507f4552433732313a20617070726f766520746f2063616c6c6572000000000000006000830152602082019050919050565b60006137ad602c836146f8565b91507f4552433732313a206f70657261746f7220717565727920666f72206e6f6e657860008301527f697374656e7420746f6b656e00000000000000000000000000000000000000006020830152604082019050919050565b6000613813602483614709565b91507f7d2c207b2274726169745f74797065223a20224661697468222c202276616c7560008301527f65223a20000000000000000000000000000000000000000000000000000000006020830152602482019050919050565b60006138796038836146f8565b91507f4552433732313a20617070726f76652063616c6c6572206973206e6f74206f7760008301527f6e6572206e6f7220617070726f76656420666f7220616c6c00000000000000006020830152604082019050919050565b60006138df602a836146f8565b91507f4552433732313a2062616c616e636520717565727920666f7220746865207a6560008301527f726f2061646472657373000000000000000000000000000000000000000000006020830152604082019050919050565b60006139456029836146f8565b91507f4552433732313a206f776e657220717565727920666f72206e6f6e657869737460008301527f656e7420746f6b656e00000000000000000000000000000000000000000000006020830152604082019050919050565b60006139ab603c83614709565b91507f222c202261747472696275746573223a205b7b202274726169745f747970652260008301527f3a20224865616c746820506f696e7473222c202276616c7565223a20000000006020830152603c82019050919050565b6000613a11600483614709565b91507f7d205d7d000000000000000000000000000000000000000000000000000000006000830152600482019050919050565b6000613a516020836146f8565b91507f4552433732313a206d696e7420746f20746865207a65726f20616464726573736000830152602082019050919050565b6000613a91602c836146f8565b91507f4552433732313a20617070726f76656420717565727920666f72206e6f6e657860008301527f697374656e7420746f6b656e00000000000000000000000000000000000000006020830152604082019050919050565b6000613af76029836146f8565b91507f4552433732313a207472616e73666572206f6620746f6b656e2074686174206960008301527f73206e6f74206f776e00000000000000000000000000000000000000000000006020830152604082019050919050565b6000613b5d600a83614709565b91507f7b226e616d65223a2022000000000000000000000000000000000000000000006000830152600a82019050919050565b6000613b9d6021836146f8565b91507f4552433732313a20617070726f76616c20746f2063757272656e74206f776e6560008301527f72000000000000000000000000000000000000000000000000000000000000006020830152604082019050919050565b6000613c03601d83614709565b91507f646174613a6170706c69636174696f6e2f6a736f6e3b6261736536342c0000006000830152601d82019050919050565b6000613c436031836146f8565b91507f4552433732313a207472616e736665722063616c6c6572206973206e6f74206f60008301527f776e6572206e6f7220617070726f7665640000000000000000000000000000006020830152604082019050919050565b6000613ca9602b83614709565b91507f7d2c207b2274726169745f74797065223a202241747461636b20506f7765722260008301527f2c202276616c7565223a200000000000000000000000000000000000000000006020830152602b82019050919050565b6000613d0f602683614709565b91507f7d2c207b2274726169745f74797065223a2022446566656e7365222c2022766160008301527f6c7565223a2000000000000000000000000000000000000000000000000000006020830152602682019050919050565b600060a0830160008301518482036000860152613d85828261334d565b91505060208301518482036020860152613d9f828261334d565b9150506040830151613db46040860182613f7d565b506060830151613dc76060860182613f7d565b506080830151613dda6080860182613f7d565b508091505092915050565b600061012083016000830151613dfe6000860182613f7d565b5060208301518482036020860152613e16828261334d565b91505060408301518482036040860152613e30828261334d565b9150506060830151613e456060860182613f7d565b506080830151613e586080860182613f7d565b5060a0830151613e6b60a0860182613f7d565b5060c0830151613e7e60c0860182613f7d565b5060e0830151613e9160e0860182613f7d565b50610100830151613ea6610100860182613f7d565b508091505092915050565b600061012083016000830151613eca6000860182613f7d565b5060208301518482036020860152613ee2828261334d565b91505060408301518482036040860152613efc828261334d565b9150506060830151613f116060860182613f7d565b506080830151613f246080860182613f7d565b5060a0830151613f3760a0860182613f7d565b5060c0830151613f4a60c0860182613f7d565b5060e0830151613f5d60e0860182613f7d565b50610100830151613f72610100860182613f7d565b508091505092915050565b613f8681614893565b82525050565b613f9581614893565b82525050565b6000613fa682613b50565b9150613fb2828c6133bf565b9150613fbd826133f0565b9150613fc9828b6133bf565b9150613fd48261353c565b9150613fe0828a6133bf565b9150613feb8261399e565b9150613ff782896133bf565b915061400282613654565b915061400e82886133bf565b915061401982613c9c565b915061402582876133bf565b915061403082613d02565b915061403c82866133bf565b9150614047826135ee565b915061405382856133bf565b915061405e82613806565b915061406a82846133bf565b915061407582613a04565b91508190509a9950505050505050505050565b600061409382613bf6565b915061409f82846133bf565b915081905092915050565b60006020820190506140bf6000830184613281565b92915050565b60006080820190506140da6000830187613281565b6140e76020830186613281565b6140f46040830185613f8c565b81810360608301526141068184613314565b905095945050505050565b60006060820190506141266000830186613281565b6141336020830185613f8c565b6141406040830184613f8c565b949350505050565b600060208201905081810360008301526141628184613290565b905092915050565b600060208201905061417f6000830184613305565b92915050565b6000602082019050818103600083015261419f8184613386565b905092915050565b600060808201905081810360008301526141c18187613386565b905081810360208301526141d58186613386565b90506141e46040830185613f8c565b81810360608301526141f68184613386565b905095945050505050565b6000608082019050818103600083015261421b8187613386565b9050818103602083015261422f8186613386565b905061423e6040830185613f8c565b61424b6060830184613f8c565b95945050505050565b600060a082019050818103600083015261426e8188613386565b905081810360208301526142828187613386565b90506142916040830186613f8c565b61429e6060830185613f8c565b6142ab6080830184613f8c565b9695505050505050565b600060408201905081810360008301526142cf8185613386565b90506142de6020830184613f8c565b9392505050565b600060608201905081810360008301526142ff8186613386565b905061430e6020830185613f8c565b61431b6040830184613f8c565b949350505050565b6000602082019050818103600083015261433c81613430565b9050919050565b6000602082019050818103600083015261435c81613496565b9050919050565b6000602082019050818103600083015261437c816134fc565b9050919050565b6000602082019050818103600083015261439c81613694565b9050919050565b600060208201905081810360008301526143bc816136fa565b9050919050565b600060208201905081810360008301526143dc81613760565b9050919050565b600060208201905081810360008301526143fc816137a0565b9050919050565b6000602082019050818103600083015261441c8161386c565b9050919050565b6000602082019050818103600083015261443c816138d2565b9050919050565b6000602082019050818103600083015261445c81613938565b9050919050565b6000602082019050818103600083015261447c81613a44565b9050919050565b6000602082019050818103600083015261449c81613a84565b9050919050565b600060208201905081810360008301526144bc81613aea565b9050919050565b600060208201905081810360008301526144dc81613b90565b9050919050565b600060208201905081810360008301526144fc81613c36565b9050919050565b6000602082019050818103600083015261451d8184613d68565b905092915050565b6000602082019050818103600083015261453f8184613eb1565b905092915050565b600060208201905061455c6000830184613f8c565b92915050565b600061012082019050614578600083018c613f8c565b818103602083015261458a818b613386565b9050818103604083015261459e818a613386565b90506145ad6060830189613f8c565b6145ba6080830188613f8c565b6145c760a0830187613f8c565b6145d460c0830186613f8c565b6145e160e0830185613f8c565b6145ef610100830184613f8c565b9a9950505050505050505050565b60006040820190506146126000830185613f8c565b61461f6020830184613f8c565b9392505050565b6000604051905081810181811067ffffffffffffffff8211171561464d5761464c614a18565b5b8060405250919050565b600067ffffffffffffffff82111561467257614671614a18565b5b601f19601f8301169050602081019050919050565b6000819050602082019050919050565b600081519050919050565b600081519050919050565b600081519050919050565b6000602082019050919050565b600082825260208201905092915050565b600082825260208201905092915050565b600082825260208201905092915050565b600082825260208201905092915050565b600081905092915050565b600061471f82614893565b915061472a83614893565b9250827fffffffffffffffffffffffffffffffffffffffffffffffffffffffffffffffff0382111561475f5761475e61498b565b5b828201905092915050565b600061477582614893565b915061478083614893565b9250826147905761478f6149ba565b5b828204905092915050565b60006147a682614893565b91506147b183614893565b9250817fffffffffffffffffffffffffffffffffffffffffffffffffffffffffffffffff04831182151516156147ea576147e961498b565b5b828202905092915050565b600061480082614893565b915061480b83614893565b92508282101561481e5761481d61498b565b5b828203905092915050565b600061483482614873565b9050919050565b60008115159050919050565b60007fffffffff0000000000000000000000000000000000000000000000000000000082169050919050565b600073ffffffffffffffffffffffffffffffffffffffff82169050919050565b6000819050919050565b82818337600083830152505050565b60005b838110156148ca5780820151818401526020810190506148af565b838111156148d9576000848401525b50505050565b600060028204905060018216806148f757607f821691505b6020821081141561490b5761490a6149e9565b5b50919050565b600061491c82614893565b91507fffffffffffffffffffffffffffffffffffffffffffffffffffffffffffffffff82141561494f5761494e61498b565b5b600182019050919050565b600061496582614893565b915061497083614893565b9250826149805761497f6149ba565b5b828206905092915050565b7f4e487b7100000000000000000000000000000000000000000000000000000000600052601160045260246000fd5b7f4e487b7100000000000000000000000000000000000000000000000000000000600052601260045260246000fd5b7f4e487b7100000000000000000000000000000000000000000000000000000000600052602260045260246000fd5b7f4e487b7100000000000000000000000000000000000000000000000000000000600052604160045260246000fd5b6000601f19601f8301169050919050565b614a6181614829565b8114614a6c57600080fd5b50565b614a788161483b565b8114614a8357600080fd5b50565b614a8f81614847565b8114614a9a57600080fd5b50565b614aa681614893565b8114614ab157600080fd5b5056fe506c617965722061747461636b656420626f73732e204e657720626f73732068703a2025734142434445464748494a4b4c4d4e4f505152535455565758595a6162636465666768696a6b6c6d6e6f707172737475767778797a303132333435363738392b2f426f73732061747461636b656420706c617965722e204e657720706c617965722068703a2025730a4d696e746564204e465420772f20746f6b656e496420257320616e6420636861726163746572496e6465782025730a506c6179657220772f206368617261637465722025732061626f757420746f2061747461636b2e2048617320257320485020616e642025732041544ba2646970667358221220b2c7e14460dacf1ea4e921dab678fdbf9b6f83c7343ea59d6f6bbb6a2f62045964736f6c63430008000033446f6e6520696e697469616c697a696e6720257320772f2048502025732c20696d67202573",
  "linkReferences": {},
  "deployedLinkReferences": {}
}